{
  "address": "0xB0992A4108Bd1cf0f8e429Fc0A1D7073C7dD9Fd2",
  "abi": [
    {
      "inputs": [],
      "stateMutability": "nonpayable",
      "type": "constructor"
    },
    {
      "anonymous": false,
      "inputs": [
        {
          "indexed": false,
          "internalType": "address",
          "name": "previousAdmin",
          "type": "address"
        },
        {
          "indexed": false,
          "internalType": "address",
          "name": "newAdmin",
          "type": "address"
        }
      ],
      "name": "AdminChanged",
      "type": "event"
    },
    {
      "anonymous": false,
      "inputs": [
        {
          "indexed": true,
          "internalType": "address",
          "name": "beacon",
          "type": "address"
        }
      ],
      "name": "BeaconUpgraded",
      "type": "event"
    },
    {
      "anonymous": false,
      "inputs": [
        {
          "indexed": false,
          "internalType": "uint8",
          "name": "version",
          "type": "uint8"
        }
      ],
      "name": "Initialized",
      "type": "event"
    },
    {
      "anonymous": false,
      "inputs": [
        {
          "indexed": false,
          "internalType": "address",
          "name": "value",
          "type": "address"
        }
      ],
      "name": "PortfolioManagerUpdated",
      "type": "event"
    },
    {
      "anonymous": false,
      "inputs": [
        {
          "indexed": false,
          "internalType": "uint256",
          "name": "amount",
          "type": "uint256"
        }
      ],
      "name": "Reward",
      "type": "event"
    },
    {
      "anonymous": false,
      "inputs": [
        {
          "indexed": true,
          "internalType": "bytes32",
          "name": "role",
          "type": "bytes32"
        },
        {
          "indexed": true,
          "internalType": "bytes32",
          "name": "previousAdminRole",
          "type": "bytes32"
        },
        {
          "indexed": true,
          "internalType": "bytes32",
          "name": "newAdminRole",
          "type": "bytes32"
        }
      ],
      "name": "RoleAdminChanged",
      "type": "event"
    },
    {
      "anonymous": false,
      "inputs": [
        {
          "indexed": true,
          "internalType": "bytes32",
          "name": "role",
          "type": "bytes32"
        },
        {
          "indexed": true,
          "internalType": "address",
          "name": "account",
          "type": "address"
        },
        {
          "indexed": true,
          "internalType": "address",
          "name": "sender",
          "type": "address"
        }
      ],
      "name": "RoleGranted",
      "type": "event"
    },
    {
      "anonymous": false,
      "inputs": [
        {
          "indexed": true,
          "internalType": "bytes32",
          "name": "role",
          "type": "bytes32"
        },
        {
          "indexed": true,
          "internalType": "address",
          "name": "account",
          "type": "address"
        },
        {
          "indexed": true,
          "internalType": "address",
          "name": "sender",
          "type": "address"
        }
      ],
      "name": "RoleRevoked",
      "type": "event"
    },
    {
      "anonymous": false,
      "inputs": [
        {
          "indexed": false,
          "internalType": "uint256",
          "name": "swapSlippageBP",
          "type": "uint256"
        },
        {
          "indexed": false,
          "internalType": "uint256",
          "name": "navSlippageBP",
          "type": "uint256"
        },
        {
          "indexed": false,
          "internalType": "uint256",
          "name": "stakeSlippageBP",
          "type": "uint256"
        }
      ],
      "name": "SlippagesUpdated",
      "type": "event"
    },
    {
      "anonymous": false,
      "inputs": [
        {
          "indexed": false,
          "internalType": "uint256",
          "name": "amount",
          "type": "uint256"
        }
      ],
      "name": "Stake",
      "type": "event"
    },
    {
      "anonymous": false,
      "inputs": [],
      "name": "StrategyUpdatedParams",
      "type": "event"
    },
    {
      "anonymous": false,
      "inputs": [
        {
          "indexed": false,
          "internalType": "uint256",
          "name": "amount",
          "type": "uint256"
        },
        {
          "indexed": false,
          "internalType": "uint256",
          "name": "amountReceived",
          "type": "uint256"
        }
      ],
      "name": "Unstake",
      "type": "event"
    },
    {
      "anonymous": false,
      "inputs": [
        {
          "indexed": true,
          "internalType": "address",
          "name": "implementation",
          "type": "address"
        }
      ],
      "name": "Upgraded",
      "type": "event"
    },
    {
      "inputs": [],
      "name": "DEFAULT_ADMIN_ROLE",
      "outputs": [
        {
          "internalType": "bytes32",
          "name": "",
          "type": "bytes32"
        }
      ],
      "stateMutability": "view",
      "type": "function"
    },
    {
      "inputs": [],
      "name": "PORTFOLIO_AGENT_ROLE",
      "outputs": [
        {
          "internalType": "bytes32",
          "name": "",
          "type": "bytes32"
        }
      ],
      "stateMutability": "view",
      "type": "function"
    },
    {
      "inputs": [],
      "name": "PORTFOLIO_MANAGER",
      "outputs": [
        {
          "internalType": "bytes32",
          "name": "",
          "type": "bytes32"
        }
      ],
      "stateMutability": "view",
      "type": "function"
    },
    {
      "inputs": [],
      "name": "accountId",
      "outputs": [
        {
          "internalType": "uint128",
          "name": "",
          "type": "uint128"
        }
      ],
      "stateMutability": "view",
      "type": "function"
    },
    {
      "inputs": [],
      "name": "aerodromeRouter",
      "outputs": [
        {
          "internalType": "address",
          "name": "",
          "type": "address"
        }
      ],
      "stateMutability": "view",
      "type": "function"
    },
    {
      "inputs": [
        {
          "internalType": "address",
          "name": "_to",
          "type": "address"
        }
      ],
      "name": "claimRewards",
      "outputs": [
        {
          "internalType": "uint256",
          "name": "",
          "type": "uint256"
        }
      ],
      "stateMutability": "nonpayable",
      "type": "function"
    },
    {
      "inputs": [],
      "name": "distributorSnx",
      "outputs": [
        {
          "internalType": "address",
          "name": "",
          "type": "address"
        }
      ],
      "stateMutability": "view",
      "type": "function"
    },
    {
      "inputs": [],
      "name": "distributorUsdc",
      "outputs": [
        {
          "internalType": "address",
          "name": "",
          "type": "address"
        }
      ],
      "stateMutability": "view",
      "type": "function"
    },
    {
      "inputs": [
        {
          "internalType": "bytes32",
          "name": "role",
          "type": "bytes32"
        }
      ],
      "name": "getRoleAdmin",
      "outputs": [
        {
          "internalType": "bytes32",
          "name": "",
          "type": "bytes32"
        }
      ],
      "stateMutability": "view",
      "type": "function"
    },
    {
      "inputs": [
        {
          "internalType": "bytes32",
          "name": "role",
          "type": "bytes32"
        },
        {
          "internalType": "address",
          "name": "account",
          "type": "address"
        }
      ],
      "name": "grantRole",
      "outputs": [],
      "stateMutability": "nonpayable",
      "type": "function"
    },
    {
      "inputs": [
        {
          "internalType": "bytes32",
          "name": "role",
          "type": "bytes32"
        },
        {
          "internalType": "address",
          "name": "account",
          "type": "address"
        }
      ],
      "name": "hasRole",
      "outputs": [
        {
          "internalType": "bool",
          "name": "",
          "type": "bool"
        }
      ],
      "stateMutability": "view",
      "type": "function"
    },
    {
      "inputs": [],
      "name": "initialize",
      "outputs": [],
      "stateMutability": "nonpayable",
      "type": "function"
    },
    {
      "inputs": [],
      "name": "liquidationValue",
      "outputs": [
        {
          "internalType": "uint256",
          "name": "",
          "type": "uint256"
        }
      ],
      "stateMutability": "view",
      "type": "function"
    },
    {
      "inputs": [],
      "name": "marketId",
      "outputs": [
        {
          "internalType": "uint128",
          "name": "",
          "type": "uint128"
        }
      ],
      "stateMutability": "view",
      "type": "function"
    },
    {
      "inputs": [],
      "name": "navSlippageBP",
      "outputs": [
        {
          "internalType": "uint256",
          "name": "",
          "type": "uint256"
        }
      ],
      "stateMutability": "view",
      "type": "function"
    },
    {
      "inputs": [],
      "name": "netAssetValue",
      "outputs": [
        {
          "internalType": "uint256",
          "name": "",
          "type": "uint256"
        }
      ],
      "stateMutability": "view",
      "type": "function"
    },
    {
      "inputs": [
        {
          "internalType": "address",
          "name": "",
          "type": "address"
        },
        {
          "internalType": "address",
          "name": "",
          "type": "address"
        },
        {
          "internalType": "uint256",
          "name": "",
          "type": "uint256"
        },
        {
          "internalType": "bytes",
          "name": "",
          "type": "bytes"
        }
      ],
      "name": "onERC721Received",
      "outputs": [
        {
          "internalType": "bytes4",
          "name": "",
          "type": "bytes4"
        }
      ],
      "stateMutability": "nonpayable",
      "type": "function"
    },
    {
      "inputs": [],
      "name": "poolId",
      "outputs": [
        {
          "internalType": "uint128",
          "name": "",
          "type": "uint128"
        }
      ],
      "stateMutability": "view",
      "type": "function"
    },
    {
      "inputs": [],
      "name": "poolSnxUsdc",
      "outputs": [
        {
          "internalType": "address",
          "name": "",
          "type": "address"
        }
      ],
      "stateMutability": "view",
      "type": "function"
    },
    {
      "inputs": [],
      "name": "portfolioManager",
      "outputs": [
        {
          "internalType": "address",
          "name": "",
          "type": "address"
        }
      ],
      "stateMutability": "view",
      "type": "function"
    },
    {
      "inputs": [],
      "name": "prepareClaimUsd",
      "outputs": [],
      "stateMutability": "nonpayable",
      "type": "function"
    },
    {
      "inputs": [
        {
          "internalType": "uint256",
          "name": "amount",
          "type": "uint256"
        }
      ],
      "name": "prepareUnstake",
      "outputs": [],
      "stateMutability": "nonpayable",
      "type": "function"
    },
    {
      "inputs": [],
      "name": "proxiableUUID",
      "outputs": [
        {
          "internalType": "bytes32",
          "name": "",
          "type": "bytes32"
        }
      ],
      "stateMutability": "view",
      "type": "function"
    },
    {
      "inputs": [
        {
          "internalType": "bytes32",
          "name": "role",
          "type": "bytes32"
        },
        {
          "internalType": "address",
          "name": "account",
          "type": "address"
        }
      ],
      "name": "renounceRole",
      "outputs": [],
      "stateMutability": "nonpayable",
      "type": "function"
    },
    {
      "inputs": [
        {
          "internalType": "bytes32",
          "name": "role",
          "type": "bytes32"
        },
        {
          "internalType": "address",
          "name": "account",
          "type": "address"
        }
      ],
      "name": "revokeRole",
      "outputs": [],
      "stateMutability": "nonpayable",
      "type": "function"
    },
    {
      "inputs": [],
      "name": "roleManager",
      "outputs": [
        {
          "internalType": "contract IRoleManager",
          "name": "",
          "type": "address"
        }
      ],
      "stateMutability": "view",
      "type": "function"
    },
    {
      "inputs": [
        {
          "components": [
            {
              "internalType": "address",
              "name": "usdcToken",
              "type": "address"
            },
            {
              "internalType": "address",
              "name": "susdcToken",
              "type": "address"
            },
            {
              "internalType": "address",
              "name": "snxToken",
              "type": "address"
            },
            {
              "internalType": "address",
              "name": "wrapperModule",
              "type": "address"
            },
            {
              "internalType": "address",
              "name": "synthetixCoreRouter",
              "type": "address"
            },
            {
              "internalType": "address",
              "name": "aerodromeRouter",
              "type": "address"
            },
            {
              "internalType": "address",
              "name": "distributorUsdc",
              "type": "address"
            },
            {
              "internalType": "uint128",
              "name": "marketId",
              "type": "uint128"
            },
            {
              "internalType": "uint128",
              "name": "poolId",
              "type": "uint128"
            },
            {
              "internalType": "address",
              "name": "distributorSnx",
              "type": "address"
            },
            {
              "internalType": "address",
              "name": "poolSnxUsdc",
              "type": "address"
            }
          ],
          "internalType": "struct StrategySynthetixV3.StrategyParams",
          "name": "params",
          "type": "tuple"
        }
      ],
      "name": "setParams",
      "outputs": [],
      "stateMutability": "nonpayable",
      "type": "function"
    },
    {
      "inputs": [
        {
          "internalType": "uint256",
          "name": "_swapSlippageBP",
          "type": "uint256"
        },
        {
          "internalType": "uint256",
          "name": "_navSlippageBP",
          "type": "uint256"
        },
        {
          "internalType": "uint256",
          "name": "_stakeSlippageBP",
          "type": "uint256"
        }
      ],
      "name": "setSlippages",
      "outputs": [],
      "stateMutability": "nonpayable",
      "type": "function"
    },
    {
      "inputs": [
        {
          "internalType": "address",
          "name": "_portfolioManager",
          "type": "address"
        },
        {
          "internalType": "address",
          "name": "_roleManager",
          "type": "address"
        }
      ],
      "name": "setStrategyParams",
      "outputs": [],
      "stateMutability": "nonpayable",
      "type": "function"
    },
    {
      "inputs": [],
      "name": "snxToken",
      "outputs": [
        {
          "internalType": "contract IERC20",
          "name": "",
          "type": "address"
        }
      ],
      "stateMutability": "view",
      "type": "function"
    },
    {
      "inputs": [
        {
          "internalType": "address",
          "name": "_asset",
          "type": "address"
        },
        {
          "internalType": "uint256",
          "name": "_amount",
          "type": "uint256"
        }
      ],
      "name": "stake",
      "outputs": [],
      "stateMutability": "nonpayable",
      "type": "function"
    },
    {
      "inputs": [],
      "name": "stakeSlippageBP",
      "outputs": [
        {
          "internalType": "uint256",
          "name": "",
          "type": "uint256"
        }
      ],
      "stateMutability": "view",
      "type": "function"
    },
    {
      "inputs": [
        {
          "internalType": "bytes4",
          "name": "interfaceId",
          "type": "bytes4"
        }
      ],
      "name": "supportsInterface",
      "outputs": [
        {
          "internalType": "bool",
          "name": "",
          "type": "bool"
        }
      ],
      "stateMutability": "view",
      "type": "function"
    },
    {
      "inputs": [],
      "name": "susdcToken",
      "outputs": [
        {
          "internalType": "contract IERC20",
          "name": "",
          "type": "address"
        }
      ],
      "stateMutability": "view",
      "type": "function"
    },
    {
      "inputs": [],
      "name": "swapSlippageBP",
      "outputs": [
        {
          "internalType": "uint256",
          "name": "",
          "type": "uint256"
        }
      ],
      "stateMutability": "view",
      "type": "function"
    },
    {
      "inputs": [],
      "name": "synthetixCoreRouter",
      "outputs": [
        {
          "internalType": "contract ICoreProxy",
          "name": "",
          "type": "address"
        }
      ],
      "stateMutability": "view",
      "type": "function"
    },
    {
      "inputs": [
        {
          "internalType": "address",
          "name": "_asset",
          "type": "address"
        },
        {
          "internalType": "uint256",
          "name": "_amount",
          "type": "uint256"
        },
        {
          "internalType": "address",
          "name": "_beneficiary",
          "type": "address"
        },
        {
          "internalType": "bool",
          "name": "_targetIsZero",
          "type": "bool"
        }
      ],
      "name": "unstake",
      "outputs": [
        {
          "internalType": "uint256",
          "name": "",
          "type": "uint256"
        }
      ],
      "stateMutability": "nonpayable",
      "type": "function"
    },
    {
      "inputs": [
        {
          "internalType": "address",
          "name": "newImplementation",
          "type": "address"
        }
      ],
      "name": "upgradeTo",
      "outputs": [],
      "stateMutability": "nonpayable",
      "type": "function"
    },
    {
      "inputs": [
        {
          "internalType": "address",
          "name": "newImplementation",
          "type": "address"
        },
        {
          "internalType": "bytes",
          "name": "data",
          "type": "bytes"
        }
      ],
      "name": "upgradeToAndCall",
      "outputs": [],
      "stateMutability": "payable",
      "type": "function"
    },
    {
      "inputs": [],
      "name": "usdcToken",
      "outputs": [
        {
          "internalType": "contract IERC20",
          "name": "",
          "type": "address"
        }
      ],
      "stateMutability": "view",
      "type": "function"
    },
    {
      "inputs": [],
      "name": "wrapperModule",
      "outputs": [
        {
          "internalType": "contract IWrapperModule",
          "name": "",
          "type": "address"
        }
      ],
      "stateMutability": "view",
      "type": "function"
    }
  ],
  "numDeployments": 15,
  "solcInputHash": "dc7ddf342fb1280a7b5969fe330857b7",
  "bytecode": "0x60a0604052306080523480156200001557600080fd5b50600054610100900460ff1615808015620000375750600054600160ff909116105b8062000067575062000054306200014160201b62001fad1760201c565b15801562000067575060005460ff166001145b620000cf5760405162461bcd60e51b815260206004820152602e60248201527f496e697469616c697a61626c653a20636f6e747261637420697320616c72656160448201526d191e481a5b9a5d1a585b1a5e995960921b606482015260840160405180910390fd5b6000805460ff191660011790558015620000f3576000805461ff0019166101001790555b80156200013a576000805461ff0019169055604051600181527f7f26b83ff96e1f2b6a682f133852f6798a09c465da95921460cefb38474024989060200160405180910390a15b5062000150565b6001600160a01b03163b151590565b608051614944620001886000396000818161102601528181611066015281816111050152818161114501526111d401526149446000f3fe6080604052600436106102455760003560e01c80636ed71ede11610139578063be9c9607116100b6578063de281d811161007a578063de281d81146106e9578063e18e3a68146106fe578063ef5cfb8c1461071f578063f1b90e671461073f578063f6f6b88114610760578063f933ce7f1461078057600080fd5b8063be9c960714610651578063bf52e08014610672578063c5e00c8d14610688578063d547741f146106a8578063dcfa6924146106c857600080fd5b8063a217fddf116100fd578063a217fddf146105db578063a3673b3814610365578063adc9772e146105f0578063ae30c11014610610578063be1bc17f1461063057600080fd5b80636ed71ede146105295780637d5f5802146105515780638129fc1c1461058557806391d148541461059a5780639cfd7cff146105ba57600080fd5b80633659cfe6116101c75780635ca558f81161018b5780635ca558f81461047e5780635dbd733a1461049457806360e45b04146104c8578063620b75df146104e8578063659d43f31461050857600080fd5b80633659cfe6146103dc5780633e0dc34e146103fc5780634f1ef2861461043557806352d1902d146104485780635a98dba71461045d57600080fd5b8063248a9ca31161020e578063248a9ca3146103355780632576e65a14610365578063265c77601461037a5780632f2ff15d1461039c57806336568abe146103bc57600080fd5b8062435da51461024a57806301ffc9a714610287578063119cd879146102b757806311eac855146102db578063150b7a02146102fc575b600080fd5b34801561025657600080fd5b5060ff5461026a906001600160a01b031681565b6040516001600160a01b0390911681526020015b60405180910390f35b34801561029357600080fd5b506102a76102a2366004613e27565b6107a1565b604051901515815260200161027e565b3480156102c357600080fd5b506102cd60fd5481565b60405190815260200161027e565b3480156102e757600080fd5b5061012d5461026a906001600160a01b031681565b34801561030857600080fd5b5061031c610317366004613f1d565b6107d8565b6040516001600160e01b0319909116815260200161027e565b34801561034157600080fd5b506102cd610350366004613f89565b60009081526065602052604090206001015490565b34801561037157600080fd5b506102cd6107e9565b34801561038657600080fd5b5061039a610395366004613f89565b6107f8565b005b3480156103a857600080fd5b5061039a6103b7366004613fa2565b610f74565b3480156103c857600080fd5b5061039a6103d7366004613fa2565b610f9e565b3480156103e857600080fd5b5061039a6103f7366004613fd2565b61101c565b34801561040857600080fd5b506101335461041d906001600160801b031681565b6040516001600160801b03909116815260200161027e565b61039a610443366004613fef565b6110fb565b34801561045457600080fd5b506102cd6111c7565b34801561046957600080fd5b506101305461026a906001600160a01b031681565b34801561048a57600080fd5b506102cd60fe5481565b3480156104a057600080fd5b506102cd7fd67ad422505496469a1adf6cdf9e5ee92ac5d33992843c9ecc4b2f6d6cde913781565b3480156104d457600080fd5b5061039a6104e336600461403f565b61127a565b3480156104f457600080fd5b5060fb5461026a906001600160a01b031681565b34801561051457600080fd5b5061012f5461026a906001600160a01b031681565b34801561053557600080fd5b506101325461041d90600160801b90046001600160801b031681565b34801561055d57600080fd5b506102cd7f90c2aa7471c04182221f68e80c07ab1e5946e4c63f8693e14ca40385d529f05181565b34801561059157600080fd5b5061039a611371565b3480156105a657600080fd5b506102a76105b5366004613fa2565b61143b565b3480156105c657600080fd5b506101325461041d906001600160801b031681565b3480156105e757600080fd5b506102cd600081565b3480156105fc57600080fd5b5061039a61060b36600461406d565b611466565b34801561061c57600080fd5b5061039a61062b366004614099565b61165f565b34801561063c57600080fd5b506101355461026a906001600160a01b031681565b34801561065d57600080fd5b506101345461026a906001600160a01b031681565b34801561067e57600080fd5b506102cd60fc5481565b34801561069457600080fd5b5061039a6106a33660046140c5565b61178a565b3480156106b457600080fd5b5061039a6106c3366004613fa2565b611b19565b3480156106d457600080fd5b506101315461026a906001600160a01b031681565b3480156106f557600080fd5b5061039a611b3e565b34801561070a57600080fd5b506101375461026a906001600160a01b031681565b34801561072b57600080fd5b506102cd61073a366004613fd2565b611c8b565b34801561074b57600080fd5b506101365461026a906001600160a01b031681565b34801561076c57600080fd5b506102cd61077b3660046140ec565b611d04565b34801561078c57600080fd5b5061012e5461026a906001600160a01b031681565b60006001600160e01b03198216637965db0b60e01b14806107d257506301ffc9a760e01b6001600160e01b03198316145b92915050565b630a85bd0160e11b5b949350505050565b60006107f3611fbc565b905090565b61080360003361143b565b6108285760405162461bcd60e51b815260040161081f9061413f565b60405180910390fd5b600061083382612278565b905061085d60405180604001604052806006815260200165185b5bdd5b9d60d21b81525083612297565b61088a6040518060400160405280600b81526020016a1cdd5cd918d05b5bdd5b9d60aa1b81525082612297565b61013154610132546101335461012e546040516333cc422b60e01b81526000946001600160a01b03908116946333cc422b946108db946001600160801b03928316949290911692169060040161416d565b602060405180830381865afa1580156108f8573d6000803e3d6000fd5b505050506040513d601f19601f8201168201806040525081019061091c9190614199565b90506109506040518060400160405280601081526020016f18dbdb1b185d195c985b105b5bdd5b9d60821b81525082612297565b818110156109b95760405162461bcd60e51b815260206004820152603060248201527f636f6c6c61746572616c206973206c6f776572207468616e207072657061726560448201526f081dda5d1a191c985dc8185b5bdd5b9d60821b606482015260840161081f565b61013154610132546101335461012e54604051631ac9dde960e11b81526000946001600160a01b0390811694633593bbd294610a0a946001600160801b03928316949290911692169060040161416d565b6020604051808303816000875af1158015610a29573d6000803e3d6000fd5b505050506040513d601f19601f82011682018060405250810190610a4d9190614199565b9050610a7c6040518060400160405280600b81526020016a18dd5c9c995b9d1119589d60aa1b81525082612297565b6000811315610e6c576000610a90826122dc565b610a9b90600a6141c8565b61012d546040516370a0823160e01b81523060048201529192506001600160a01b0316906370a0823190602401602060405180830381865afa158015610ae5573d6000803e3d6000fd5b505050506040513d601f19601f82011682018060405250810190610b099190614199565b811115610b585760405162461bcd60e51b815260206004820152601f60248201527f6e6f7420656e6f756768207573646320746f2070617920666f72206465627400604482015260640161081f565b61012d546101305460405163095ea7b360e01b81526001600160a01b0391821660048201526024810184905291169063095ea7b3906044016020604051808303816000875af1158015610baf573d6000803e3d6000fd5b505050506040513d601f19601f82011682018060405250810190610bd391906141db565b506000610bdf82612278565b9050610c116040518060400160405280600e81526020016d39bab9b231a0b6b7bab73a26b4b760911b81525082612297565b61013054610132546040516335f39dc360e21b8152600160801b9091046001600160801b0316600482015260248101849052604481018390526001600160a01b039091169063d7ce770c9060640160a0604051808303816000875af1158015610c7e573d6000803e3d6000fd5b505050506040513d601f19601f82011682018060405250810190610ca291906141f8565b505061012e546040516370a0823160e01b81523060048201526000916001600160a01b0316906370a0823190602401602060405180830381865afa158015610cee573d6000803e3d6000fd5b505050506040513d601f19601f82011682018060405250810190610d129190614199565b61012e546101315460405163095ea7b360e01b81526001600160a01b03918216600482015260248101849052929350169063095ea7b3906044016020604051808303816000875af1158015610d6b573d6000803e3d6000fd5b505050506040513d601f19601f82011682018060405250810190610d8f91906141db565b50610dbe6040518060400160405280600c81526020016b737573646342616c616e636560a01b81525082612297565b610de760405180604001604052806007815260200166189d5c9b955cd960ca1b81525085612297565b61013154610132546101335461012e5460405163d3264e4360e01b81526001600160a01b039485169463d3264e4394610e36946001600160801b03918216949116929116908a9060040161427b565b600060405180830381600087803b158015610e5057600080fd5b505af1158015610e64573d6000803e3d6000fd5b505050505050505b6000838303610e7d57506000610e88565b50670de0b6b3a76400005b610eb2604051806040016040528060088152602001676c6576657261676560c01b81525082612297565b61013154610132546101335461012e546001600160a01b0393841693637b0532a4936001600160801b0390811693169116610eed89896142ad565b866040518663ffffffff1660e01b8152600401610f0e9594939291906142c0565b600060405180830381600087803b158015610f2857600080fd5b505af1158015610f3c573d6000803e3d6000fd5b50505050610f6d6040518060400160405280600c81526020016b656e64205f756e7374616b6560a01b8152506122f1565b5050505050565b600082815260656020526040902060010154610f8f81612334565b610f99838361233e565b505050565b6001600160a01b038116331461100e5760405162461bcd60e51b815260206004820152602f60248201527f416363657373436f6e74726f6c3a2063616e206f6e6c792072656e6f756e636560448201526e103937b632b9903337b91039b2b63360891b606482015260840161081f565b61101882826123c4565b5050565b6001600160a01b037f00000000000000000000000000000000000000000000000000000000000000001630036110645760405162461bcd60e51b815260040161081f906142fa565b7f00000000000000000000000000000000000000000000000000000000000000006001600160a01b03166110ad6000805160206148a6833981519152546001600160a01b031690565b6001600160a01b0316146110d35760405162461bcd60e51b815260040161081f90614346565b6110dc8161242b565b604080516000808252602082019092526110f891839190612436565b50565b6001600160a01b037f00000000000000000000000000000000000000000000000000000000000000001630036111435760405162461bcd60e51b815260040161081f906142fa565b7f00000000000000000000000000000000000000000000000000000000000000006001600160a01b031661118c6000805160206148a6833981519152546001600160a01b031690565b6001600160a01b0316146111b25760405162461bcd60e51b815260040161081f90614346565b6111bb8261242b565b61101882826001612436565b6000306001600160a01b037f000000000000000000000000000000000000000000000000000000000000000016146112675760405162461bcd60e51b815260206004820152603860248201527f555550535570677261646561626c653a206d757374206e6f742062652063616c60448201527f6c6564207468726f7567682064656c656761746563616c6c0000000000000000606482015260840161081f565b506000805160206148a683398151915290565b61128560003361143b565b6112a15760405162461bcd60e51b815260040161081f9061413f565b6001600160a01b0382166112f25760405162461bcd60e51b815260206004820152601860248201527716995c9bc81859191c995cdcc81b9bdd08185b1b1bddd95960421b604482015260640161081f565b6001600160a01b0381166113435760405162461bcd60e51b815260206004820152601860248201527716995c9bc81859191c995cdcc81b9bdd08185b1b1bddd95960421b604482015260640161081f565b60fb80546001600160a01b039384166001600160a01b03199182161790915560ff8054929093169116179055565b600054610100900460ff16158080156113915750600054600160ff909116105b806113ab5750303b1580156113ab575060005460ff166001145b6113c75760405162461bcd60e51b815260040161081f90614392565b6000805460ff1916600117905580156113ea576000805461ff0019166101001790555b6113f26125a1565b80156110f8576000805461ff0019169055604051600181527f7f26b83ff96e1f2b6a682f133852f6798a09c465da95921460cefb3847402498906020015b60405180910390a150565b60009182526065602090815260408084206001600160a01b0393909316845291905290205460ff1690565b60fb546001600160a01b031633146114905760405162461bcd60e51b815260040161081f906143e0565b60006114ff306001600160a01b031663a3673b386040518163ffffffff1660e01b8152600401602060405180830381865afa1580156114d3573d6000803e3d6000fd5b505050506040513d601f19601f820116820180604052508101906114f79190614199565b60fd54612686565b6040516370a0823160e01b81523060048201529091506115759084906001600160a01b038216906370a0823190602401602060405180830381865afa15801561154c573d6000803e3d6000fd5b505050506040513d601f19601f820116820180604052508101906115709190614199565b6126b0565b80306001600160a01b031663a3673b386040518163ffffffff1660e01b8152600401602060405180830381865afa1580156115b4573d6000803e3d6000fd5b505050506040513d601f19601f820116820180604052508101906115d89190614199565b10156116265760405162461bcd60e51b815260206004820152601f60248201527f5374726174656779204e4156206c657373207468616e20657870656374656400604482015260640161081f565b6040518281527f227a473b70d2f893cc7659219575c030a63b5743024fe1e0c1a680e708b1525a906020015b60405180910390a1505050565b60ff54604051632474521560e21b81527fd67ad422505496469a1adf6cdf9e5ee92ac5d33992843c9ecc4b2f6d6cde913760048201523360248201526001600160a01b03909116906391d1485490604401602060405180830381865afa1580156116cd573d6000803e3d6000fd5b505050506040513d601f19601f820116820180604052508101906116f191906141db565b61173d5760405162461bcd60e51b815260206004820152601d60248201527f5265737472696374656420746f20506f7274666f6c696f204167656e74000000604482015260640161081f565b60fc83905560fd82905560fe81905560408051848152602081018490529081018290527f116fbf1e97a2be629ad98abfb6c332733c8996c2dfb174dd2efe8440df381d1a90606001611652565b61179560003361143b565b6117b15760405162461bcd60e51b815260040161081f9061413f565b6117be6020820182613fd2565b61012d80546001600160a01b0319166001600160a01b03929092169190911790556117ef6040820160208301613fd2565b61012e80546001600160a01b0319166001600160a01b03929092169190911790556118206060820160408301613fd2565b61012f80546001600160a01b0319166001600160a01b03929092169190911790556118516080820160608301613fd2565b61013080546001600160a01b0319166001600160a01b039290921691909117905561188260a0820160808301613fd2565b61013180546001600160a01b0319166001600160a01b03929092169190911790556118b360c0820160a08301613fd2565b61013780546001600160a01b0319166001600160a01b03929092169190911790556118e661016082016101408301613fd2565b61013680546001600160a01b0319166001600160a01b0392909216919091179055611918610100820160e08301614417565b61013280546001600160801b03928316600160801b02921691909117905561194861012082016101008301614417565b61013380546001600160801b0319166001600160801b039290921691909117905561197b61014082016101208301613fd2565b61013580546001600160a01b0319166001600160a01b03929092169190911790556119ac60e0820160c08301613fd2565b61013480546001600160a01b0319166001600160a01b03929092169190911790556119da6020820182613fd2565b6001600160a01b031663313ce5676040518163ffffffff1660e01b8152600401602060405180830381865afa158015611a17573d6000803e3d6000fd5b505050506040513d601f19601f82011682018060405250810190611a3b9190614440565b611a4690600a614547565b61013955611a5a6040820160208301613fd2565b6001600160a01b031663313ce5676040518163ffffffff1660e01b8152600401602060405180830381865afa158015611a97573d6000803e3d6000fd5b505050506040513d601f19601f82011682018060405250810190611abb9190614440565b611ac690600a614547565b6101385561013280546001600160801b0319166f800000000000000000000000000003b21790556040517fea5646eb3528e525944447a4a97de700dd472298626e5c0481d1c82c3da86ea590600090a150565b600082815260656020526040902060010154611b3481612334565b610f9983836123c4565b611b4960003361143b565b611b655760405162461bcd60e51b815260040161081f9061413f565b61013154610132546101335461012e54604051631ac9dde960e11b81526000946001600160a01b0390811694633593bbd294611bb6946001600160801b03928316949290911692169060040161416d565b6020604051808303816000875af1158015611bd5573d6000803e3d6000fd5b505050506040513d601f19601f82011682018060405250810190611bf99190614199565b905060008112156110f85761013154610132546101335461012e546001600160a01b039384169363df16a074936001600160801b0390811693169116611c3e86614556565b6040518563ffffffff1660e01b8152600401611c5d949392919061427b565b600060405180830381600087803b158015611c7757600080fd5b505af1158015610f6d573d6000803e3d6000fd5b60fb546000906001600160a01b03163314611cb85760405162461bcd60e51b815260040161081f906143e0565b6000611cc383612bc7565b905080156107d2576040518181527f3ac0594a85a20354f9dc74f33728416d19ce00d04a406c108cc2dcf2cecea1349060200160405180910390a192915050565b60fb546000906001600160a01b03163314611d315760405162461bcd60e51b815260040161081f906143e0565b6000611d74306001600160a01b031663a3673b386040518163ffffffff1660e01b8152600401602060405180830381865afa1580156114d3573d6000803e3d6000fd5b90506000808415611d9b57611d8886612bc7565b9050611d948887612eed565b9150611e0a565b611da6888888612f5b565b915086821015611e0a5760405162461bcd60e51b815260206004820152602960248201527f52657475726e65642076616c7565206c657373207468616e2072657175657374604482015268195908185b5bdd5b9d60ba1b606482015260840161081f565b82306001600160a01b031663a3673b386040518163ffffffff1660e01b8152600401602060405180830381865afa158015611e49573d6000803e3d6000fd5b505050506040513d601f19601f82011682018060405250810190611e6d9190614199565b1015611ebb5760405162461bcd60e51b815260206004820152601f60248201527f5374726174656779204e4156206c657373207468616e20657870656374656400604482015260640161081f565b60405163a9059cbb60e01b81526001600160a01b0387811660048301526024820184905289169063a9059cbb906044016020604051808303816000875af1158015611f0a573d6000803e3d6000fd5b505050506040513d601f19601f82011682018060405250810190611f2e91906141db565b5060408051888152602081018490527f9045c2ac9b2026de8075f2701bbdde882cd5e830b3b1ead9a15b22f2b5b93742910160405180910390a18015611fa2576040518181527f3ac0594a85a20354f9dc74f33728416d19ce00d04a406c108cc2dcf2cecea1349060200160405180910390a15b509695505050505050565b6001600160a01b03163b151590565b6000611fe4604051806040016040528060058152602001641d1bdd185b60da1b8152506122f1565b61013154610132546101335461012e546040516333cc422b60e01b81526000946001600160a01b03908116946333cc422b94612035946001600160801b03928316949290911692169060040161416d565b602060405180830381865afa158015612052573d6000803e3d6000fd5b505050506040513d601f19601f820116820180604052508101906120769190614199565b90506120aa6040518060400160405280601081526020016f18dbdb1b185d195c985b105b5bdd5b9d60821b81525082612297565b610131546101325461012e5460405163927482ff60e01b81526001600160801b0390921660048301526001600160a01b039081166024830152600092169063927482ff90604401602060405180830381865afa15801561210e573d6000803e3d6000fd5b505050506040513d601f19601f820116820180604052508101906121329190614199565b90506121646040518060400160405280600e81526020016d199c995950dbdb1b185d195c985b60921b81525082612297565b61012e546040516370a0823160e01b81523060048201526000916001600160a01b0316906370a0823190602401602060405180830381865afa1580156121ae573d6000803e3d6000fd5b505050506040513d601f19601f820116820180604052508101906121d29190614199565b61012d546040516370a0823160e01b81523060048201529192506000916001600160a01b03909116906370a0823190602401602060405180830381865afa158015612221573d6000803e3d6000fd5b505050506040513d601f19601f820116820180604052508101906122459190614199565b9050806122658361225686886141c8565b61226091906141c8565b6122dc565b61226f91906141c8565b94505050505090565b600061013954610138548361228d9190614572565b6107d29190614589565b61101882826040516024016122ad9291906145fb565b60408051601f198184030181529190526020810180516001600160e01b0316632d839cb360e21b1790526133e5565b600061013854610139548361228d9190614572565b6110f881604051602401612305919061461d565b60408051601f198184030181529190526020810180516001600160e01b031663104c13eb60e21b1790526133e5565b6110f881336133ee565b612348828261143b565b6110185760008281526065602090815260408083206001600160a01b03851684529091529020805460ff191660011790556123803390565b6001600160a01b0316816001600160a01b0316837f2f8788117e7eff1d82e926ec794901d17c78024a50270940304540a733656f0d60405160405180910390a45050565b6123ce828261143b565b156110185760008281526065602090815260408083206001600160a01b0385168085529252808320805460ff1916905551339285917ff6391f5c32d9c69d2a47ea670b442974b53935d1edc7fd64eb21e047a839171b9190a45050565b600061101881612334565b7f4910fdfa16fed3260ed0e7147f7cc6da11a60208b5b9406d12a635614ffd91435460ff161561246957610f9983613447565b826001600160a01b03166352d1902d6040518163ffffffff1660e01b8152600401602060405180830381865afa9250505080156124c3575060408051601f3d908101601f191682019092526124c091810190614199565b60015b6125265760405162461bcd60e51b815260206004820152602e60248201527f45524331393637557067726164653a206e657720696d706c656d656e7461746960448201526d6f6e206973206e6f74205555505360901b606482015260840161081f565b6000805160206148a683398151915281146125955760405162461bcd60e51b815260206004820152602960248201527f45524331393637557067726164653a20756e737570706f727465642070726f786044820152681a58589b195555525160ba1b606482015260840161081f565b50610f998383836134e3565b600054610100900460ff16158080156125c15750600054600160ff909116105b806125db5750303b1580156125db575060005460ff166001145b6125f75760405162461bcd60e51b815260040161081f90614392565b6000805460ff19166001179055801561261a576000805461ff0019166101001790555b61262261350e565b61262a61350e565b61263560003361233e565b601460fc81905560fd55600460fe5580156110f8576000805461ff0019169055604051600181527f7f26b83ff96e1f2b6a682f133852f6798a09c465da95921460cefb384740249890602001611430565b600061271061269583826142ad565b61269f9085614572565b6126a99190614589565b9392505050565b61012d546001600160a01b0383811691161461270a5760405162461bcd60e51b8152602060048201526019602482015278536f6d6520746f6b656e206e6f7420636f6d70617469626c6560381b604482015260640161081f565b612731604051806040016040528060068152602001655f7374616b6560d01b8152506122f1565b61012d546101305460405163095ea7b360e01b81526001600160a01b0391821660048201526024810184905291169063095ea7b3906044016020604051808303816000875af1158015612788573d6000803e3d6000fd5b505050506040513d601f19601f820116820180604052508101906127ac91906141db565b5060006127b882612278565b90506127e76040518060400160405280600b81526020016a7573646342616c616e636560a81b81525083612297565b6128176040518060400160405280600e81526020016d39bab9b231a0b6b7bab73a26b4b760911b81525082612297565b61013054610132546040516335f39dc360e21b8152600160801b9091046001600160801b0316600482015260248101849052604481018390526001600160a01b039091169063d7ce770c9060640160a0604051808303816000875af1158015612884573d6000803e3d6000fd5b505050506040513d601f19601f820116820180604052508101906128a891906141f8565b505061012e546040516370a0823160e01b81523060048201526000916001600160a01b0316906370a0823190602401602060405180830381865afa1580156128f4573d6000803e3d6000fd5b505050506040513d601f19601f820116820180604052508101906129189190614199565b61012e546101315460405163095ea7b360e01b81526001600160a01b03918216600482015260248101849052929350169063095ea7b3906044016020604051808303816000875af1158015612971573d6000803e3d6000fd5b505050506040513d601f19601f8201168201806040525081019061299591906141db565b506129c46040518060400160405280600c81526020016b737573646342616c616e636560a01b81525082612297565b610131546101325461012e54604051631070052d60e31b81526001600160801b0390921660048301526001600160a01b0390811660248301526044820184905290911690638380296890606401600060405180830381600087803b158015612a2b57600080fd5b505af1158015612a3f573d6000803e3d6000fd5b505061013154610132546101335461012e546040516333cc422b60e01b8152600096506001600160a01b0394851695506333cc422b94612a91946001600160801b03908116941692169060040161416d565b602060405180830381865afa158015612aae573d6000803e3d6000fd5b505050506040513d601f19601f82011682018060405250810190612ad29190614199565b9050612b066040518060400160405280601081526020016f18dbdb1b185d195c985b105b5bdd5b9d60821b81525082612297565b61013154610132546101335461012e546001600160a01b0393841693637b0532a4936001600160801b0390811693169116612b4186886141c8565b670de0b6b3a76400006040518663ffffffff1660e01b8152600401612b6a9594939291906142c0565b600060405180830381600087803b158015612b8457600080fd5b505af1158015612b98573d6000803e3d6000fd5b50505050610f6d6040518060400160405280600a815260200169656e64205f7374616b6560b01b8152506122f1565b61013154610132546101335461012e546101355460405163460d204960e01b81526000956001600160a01b039081169563460d204995612c20956001600160801b03928316959190921693918316921690600401614630565b6020604051808303816000875af1158015612c3f573d6000803e3d6000fd5b505050506040513d601f19601f82011682018060405250810190612c639190614199565b5061013154610132546101335461012e546101345460405163460d204960e01b81526001600160a01b039586169563460d204995612cb9956001600160801b039182169591169390821692911690600401614630565b6020604051808303816000875af1158015612cd8573d6000803e3d6000fd5b505050506040513d601f19601f82011682018060405250810190612cfc9190614199565b5061012f546040516370a0823160e01b81523060048201526000916001600160a01b0316906370a0823190602401602060405180830381865afa158015612d47573d6000803e3d6000fd5b505050506040513d601f19601f82011682018060405250810190612d6b9190614199565b90508015612df7576101375461012f5461012d5461013654600093612da5936001600160a01b03918216939082169290821691168661357b565b90508015612df5576101375461012f5461012d5461013654612df2936001600160a01b039081169381169281169116866064612de2886063614572565b612dec9190614589565b306137ef565b90505b505b61012d546040516370a0823160e01b81523060048201526000916001600160a01b0316906370a0823190602401602060405180830381865afa158015612e41573d6000803e3d6000fd5b505050506040513d601f19601f82011682018060405250810190612e659190614199565b905080156126a95761012d5460405163a9059cbb60e01b81526001600160a01b038681166004830152602482018490529091169063a9059cbb906044016020604051808303816000875af1158015612ec1573d6000803e3d6000fd5b505050506040513d601f19601f82011682018060405250810190612ee591906141db565b509392505050565b61012d546040516370a0823160e01b81523060048201526000916001600160a01b0316906370a0823190602401602060405180830381865afa158015612f37573d6000803e3d6000fd5b505050506040513d601f19601f820116820180604052508101906126a99190614199565b6000612f86604051806040016040528060088152602001675f756e7374616b6560c01b8152506122f1565b61012d546001600160a01b03858116911614612fe05760405162461bcd60e51b8152602060048201526019602482015278536f6d6520746f6b656e206e6f7420636f6d70617469626c6560381b604482015260640161081f565b6000612feb84612278565b90506130166040518060400160405280600781526020016617d85b5bdd5b9d60ca1b81525085612297565b6130476040518060400160405280600f81526020016e7375736463546f576974686472617760881b81525082612297565b610131546101325461012e546040516395997c5160e01b81526001600160801b0390921660048301526001600160a01b03908116602483015260448201849052909116906395997c5190606401600060405180830381600087803b1580156130ae57600080fd5b505af11580156130c2573d6000803e3d6000fd5b505061012e546040516370a0823160e01b8152306004820152600093506001600160a01b0390911691506370a0823190602401602060405180830381865afa158015613112573d6000803e3d6000fd5b505050506040513d601f19601f820116820180604052508101906131369190614199565b90506131666040518060400160405280600c81526020016b737573646342616c616e636560a01b81525082612297565b6000613171826122dc565b90506131a36040518060400160405280600e81526020016d1d5cd918d05b5bdd5b9d135a5b9d60921b81525082612297565b61012e546101305460405163095ea7b360e01b81526001600160a01b0391821660048201526024810185905291169063095ea7b3906044016020604051808303816000875af11580156131fa573d6000803e3d6000fd5b505050506040513d601f19601f8201168201806040525081019061321e91906141db565b506101305461013254604051633c26d6cf60e11b8152600160801b9091046001600160801b0316600482015260248101849052604481018390526001600160a01b039091169063784dad9e9060640160a0604051808303816000875af115801561328c573d6000803e3d6000fd5b505050506040513d601f19601f820116820180604052508101906132b091906141f8565b50506133406040518060600160405280602281526020016148c66022913961012d546040516370a0823160e01b81523060048201526001600160a01b03909116906370a0823190602401602060405180830381865afa158015613317573d6000803e3d6000fd5b505050506040513d601f19601f8201168201806040525081019061333b9190614199565b612297565b61336d6040518060400160405280600c81526020016b656e64205f756e7374616b6560a01b8152506122f1565b61012d546040516370a0823160e01b81523060048201526001600160a01b03909116906370a0823190602401602060405180830381865afa1580156133b6573d6000803e3d6000fd5b505050506040513d601f19601f820116820180604052508101906133da9190614199565b979650505050505050565b6110f881613ae2565b6133f8828261143b565b6110185761340581613b03565b613410836020613b15565b604051602001613421929190614664565b60408051601f198184030181529082905262461bcd60e51b825261081f9160040161461d565b6001600160a01b0381163b6134b45760405162461bcd60e51b815260206004820152602d60248201527f455243313936373a206e657720696d706c656d656e746174696f6e206973206e60448201526c1bdd08184818dbdb9d1c9858dd609a1b606482015260840161081f565b6000805160206148a683398151915280546001600160a01b0319166001600160a01b0392909216919091179055565b6134ec83613cb1565b6000825111806134f95750805b15610f99576135088383613cf1565b50505050565b600054610100900460ff166135795760405162461bcd60e51b815260206004820152602b60248201527f496e697469616c697a61626c653a20636f6e7472616374206973206e6f74206960448201526a6e697469616c697a696e6760a81b606482015260840161081f565b565b604080516001808252818301909252600091829190816020015b60408051608081018252600080825260208083018290529282018190526060820152825260001990920191018161359557905050905085816000815181106135df576135df6146d9565b6020026020010151600001906001600160a01b031690816001600160a01b0316815250508481600081518110613617576136176146d9565b6020026020010151602001906001600160a01b031690816001600160a01b031681525050836001600160a01b03166322be3de16040518163ffffffff1660e01b8152600401602060405180830381865afa158015613679573d6000803e3d6000fd5b505050506040513d601f19601f8201168201806040525081019061369d91906141db565b816000815181106136b0576136b06146d9565b60200260200101516040019015159081151581525050836001600160a01b031663c45a01556040518163ffffffff1660e01b8152600401602060405180830381865afa158015613704573d6000803e3d6000fd5b505050506040513d601f19601f8201168201806040525081019061372891906146ef565b8160008151811061373b5761373b6146d9565b60209081029190910101516001600160a01b03918216606090910152604051631542686b60e21b8152600091891690635509a1ac906137809087908690600401614777565b600060405180830381865afa15801561379d573d6000803e3d6000fd5b505050506040513d6000823e601f3d908101601f191682016040526137c59190810190614790565b9050806001815181106137da576137da6146d9565b60200260200101519250505095945050505050565b60405163095ea7b360e01b81526001600160a01b038881166004830152602482018590526000919088169063095ea7b3906044016020604051808303816000875af1158015613842573d6000803e3d6000fd5b505050506040513d601f19601f8201168201806040525081019061386691906141db565b50604080516001808252818301909252600091816020015b60408051608081018252600080825260208083018290529282018190526060820152825260001990920191018161387e57905050905087816000815181106138c8576138c86146d9565b6020026020010151600001906001600160a01b031690816001600160a01b0316815250508681600081518110613900576139006146d9565b6020026020010151602001906001600160a01b031690816001600160a01b031681525050856001600160a01b03166322be3de16040518163ffffffff1660e01b8152600401602060405180830381865afa158015613962573d6000803e3d6000fd5b505050506040513d601f19601f8201168201806040525081019061398691906141db565b81600081518110613999576139996146d9565b60200260200101516040019015159081151581525050856001600160a01b031663c45a01556040518163ffffffff1660e01b8152600401602060405180830381865afa1580156139ed573d6000803e3d6000fd5b505050506040513d601f19601f82011682018060405250810190613a1191906146ef565b81600081518110613a2457613a246146d9565b60209081029190910101516001600160a01b0391821660609091015260405163cac88ea960e01b81526000918b169063cac88ea990613a6f908990899087908a904290600401614836565b6000604051808303816000875af1158015613a8e573d6000803e3d6000fd5b505050506040513d6000823e601f3d908101601f19168201604052613ab69190810190614790565b905080600181518110613acb57613acb6146d9565b602002602001015192505050979650505050505050565b60006a636f6e736f6c652e6c6f679050600080835160208501845afa505050565b60606107d26001600160a01b03831660145b60606000613b24836002614572565b613b2f9060026141c8565b67ffffffffffffffff811115613b4757613b47613e66565b6040519080825280601f01601f191660200182016040528015613b71576020820181803683370190505b509050600360fc1b81600081518110613b8c57613b8c6146d9565b60200101906001600160f81b031916908160001a905350600f60fb1b81600181518110613bbb57613bbb6146d9565b60200101906001600160f81b031916908160001a9053506000613bdf846002614572565b613bea9060016141c8565b90505b6001811115613c62576f181899199a1a9b1b9c1cb0b131b232b360811b85600f1660108110613c1e57613c1e6146d9565b1a60f81b828281518110613c3457613c346146d9565b60200101906001600160f81b031916908160001a90535060049490941c93613c5b81614872565b9050613bed565b5083156126a95760405162461bcd60e51b815260206004820181905260248201527f537472696e67733a20686578206c656e67746820696e73756666696369656e74604482015260640161081f565b613cba81613447565b6040516001600160a01b038216907fbc7cd75a20ee27fd9adebab32041f755214dbc6bffa90cc0225b39da2e5c2d3b90600090a250565b60606126a983836040518060600160405280602781526020016148e8602791396060600080856001600160a01b031685604051613d2e9190614889565b600060405180830381855af49150503d8060008114613d69576040519150601f19603f3d011682016040523d82523d6000602084013e613d6e565b606091505b5091509150613d7f86838387613d89565b9695505050505050565b60608315613df8578251600003613df1576001600160a01b0385163b613df15760405162461bcd60e51b815260206004820152601d60248201527f416464726573733a2063616c6c20746f206e6f6e2d636f6e7472616374000000604482015260640161081f565b50816107e1565b6107e18383815115613e0d5781518083602001fd5b8060405162461bcd60e51b815260040161081f919061461d565b600060208284031215613e3957600080fd5b81356001600160e01b0319811681146126a957600080fd5b6001600160a01b03811681146110f857600080fd5b634e487b7160e01b600052604160045260246000fd5b604051601f8201601f1916810167ffffffffffffffff81118282101715613ea557613ea5613e66565b604052919050565b600082601f830112613ebe57600080fd5b813567ffffffffffffffff811115613ed857613ed8613e66565b613eeb601f8201601f1916602001613e7c565b818152846020838601011115613f0057600080fd5b816020850160208301376000918101602001919091529392505050565b60008060008060808587031215613f3357600080fd5b8435613f3e81613e51565b93506020850135613f4e81613e51565b925060408501359150606085013567ffffffffffffffff811115613f7157600080fd5b613f7d87828801613ead565b91505092959194509250565b600060208284031215613f9b57600080fd5b5035919050565b60008060408385031215613fb557600080fd5b823591506020830135613fc781613e51565b809150509250929050565b600060208284031215613fe457600080fd5b81356126a981613e51565b6000806040838503121561400257600080fd5b823561400d81613e51565b9150602083013567ffffffffffffffff81111561402957600080fd5b61403585828601613ead565b9150509250929050565b6000806040838503121561405257600080fd5b823561405d81613e51565b91506020830135613fc781613e51565b6000806040838503121561408057600080fd5b823561408b81613e51565b946020939093013593505050565b6000806000606084860312156140ae57600080fd5b505081359360208301359350604090920135919050565b600061016082840312156140d857600080fd5b50919050565b80151581146110f857600080fd5b6000806000806080858703121561410257600080fd5b843561410d81613e51565b935060208501359250604085013561412481613e51565b91506060850135614134816140de565b939692955090935050565b6020808252601490820152735265737472696374656420746f2061646d696e7360601b604082015260600190565b6001600160801b0393841681529190921660208201526001600160a01b03909116604082015260600190565b6000602082840312156141ab57600080fd5b5051919050565b634e487b7160e01b600052601160045260246000fd5b808201808211156107d2576107d26141b2565b6000602082840312156141ed57600080fd5b81516126a9816140de565b60008082840360a081121561420c57600080fd5b835192506080601f198201121561422257600080fd5b506040516080810181811067ffffffffffffffff8211171561424657614246613e66565b806040525060208401518152604084015160208201526060840151604082015260808401516060820152809150509250929050565b6001600160801b0394851681529290931660208301526001600160a01b03166040820152606081019190915260800190565b818103818111156107d2576107d26141b2565b6001600160801b0395861681529390941660208401526001600160a01b039190911660408301526060820152608081019190915260a00190565b6020808252602c908201527f46756e6374696f6e206d7573742062652063616c6c6564207468726f7567682060408201526b19195b1959d85d1958d85b1b60a21b606082015260800190565b6020808252602c908201527f46756e6374696f6e206d7573742062652063616c6c6564207468726f7567682060408201526b6163746976652070726f787960a01b606082015260800190565b6020808252602e908201527f496e697469616c697a61626c653a20636f6e747261637420697320616c72656160408201526d191e481a5b9a5d1a585b1a5e995960921b606082015260800190565b6020808252601f908201527f5265737472696374656420746f20504f5254464f4c494f5f4d414e4147455200604082015260600190565b60006020828403121561442957600080fd5b81356001600160801b03811681146126a957600080fd5b60006020828403121561445257600080fd5b815160ff811681146126a957600080fd5b600181815b8085111561449e578160001904821115614484576144846141b2565b8085161561449157918102915b93841c9390800290614468565b509250929050565b6000826144b5575060016107d2565b816144c2575060006107d2565b81600181146144d857600281146144e2576144fe565b60019150506107d2565b60ff8411156144f3576144f36141b2565b50506001821b6107d2565b5060208310610133831016604e8410600b8410161715614521575081810a6107d2565b61452b8383614463565b806000190482111561453f5761453f6141b2565b029392505050565b60006126a960ff8416836144a6565b6000600160ff1b820161456b5761456b6141b2565b5060000390565b80820281158282048414176107d2576107d26141b2565b6000826145a657634e487b7160e01b600052601260045260246000fd5b500490565b60005b838110156145c65781810151838201526020016145ae565b50506000910152565b600081518084526145e78160208601602086016145ab565b601f01601f19169290920160200192915050565b60408152600061460e60408301856145cf565b90508260208301529392505050565b6020815260006126a960208301846145cf565b6001600160801b0394851681529290931660208301526001600160a01b039081166040830152909116606082015260800190565b7f416363657373436f6e74726f6c3a206163636f756e742000000000000000000081526000835161469c8160178501602088016145ab565b7001034b99036b4b9b9b4b733903937b6329607d1b60179184019182015283516146cd8160288401602088016145ab565b01602801949350505050565b634e487b7160e01b600052603260045260246000fd5b60006020828403121561470157600080fd5b81516126a981613e51565b600081518084526020808501945080840160005b8381101561476c57815180516001600160a01b039081168952848201518116858a01526040808301511515908a0152606091820151169088015260809096019590820190600101614720565b509495945050505050565b8281526040602082015260006107e1604083018461470c565b600060208083850312156147a357600080fd5b825167ffffffffffffffff808211156147bb57600080fd5b818501915085601f8301126147cf57600080fd5b8151818111156147e1576147e1613e66565b8060051b91506147f2848301613e7c565b818152918301840191848101908884111561480c57600080fd5b938501935b8385101561482a57845182529385019390850190614811565b98975050505050505050565b85815284602082015260a06040820152600061485560a083018661470c565b6001600160a01b0394909416606083015250608001529392505050565b600081614881576148816141b2565b506000190190565b6000825161489b8184602087016145ab565b919091019291505056fe360894a13ba1a3210667c828492db98dca3e2076cc3735a920a3ca505d382bbc75736463546f6b656e2e62616c616e63654f66286164647265737328746869732929416464726573733a206c6f772d6c6576656c2064656c65676174652063616c6c206661696c6564a2646970667358221220e2a4dc61dee8180f04943b5550a52cd76db36e3d184b66e435e3e71842bf351364736f6c63430008110033",
  "implementation": "0xfa237d40C6Fd6B9500f9d99d86B4cADa343161Bd",
  "devdoc": {
    "kind": "dev",
    "methods": {
      "constructor": {
        "custom:oz-upgrades-unsafe-allow": "constructor"
      },
      "getRoleAdmin(bytes32)": {
        "details": "Returns the admin role that controls `role`. See {grantRole} and {revokeRole}. To change a role's admin, use {_setRoleAdmin}."
      },
      "grantRole(bytes32,address)": {
        "details": "Grants `role` to `account`. If `account` had not been already granted `role`, emits a {RoleGranted} event. Requirements: - the caller must have ``role``'s admin role. May emit a {RoleGranted} event."
      },
      "hasRole(bytes32,address)": {
        "details": "Returns `true` if `account` has been granted `role`."
      },
      "proxiableUUID()": {
        "details": "Implementation of the ERC1822 {proxiableUUID} function. This returns the storage slot used by the implementation. It is used to validate the implementation's compatibility when performing an upgrade. IMPORTANT: A proxy pointing at a proxiable contract should not be considered proxiable itself, because this risks bricking a proxy that upgrades to it, by delegating to itself until out of gas. Thus it is critical that this function revert if invoked through a proxy. This is guaranteed by the `notDelegated` modifier."
      },
      "renounceRole(bytes32,address)": {
        "details": "Revokes `role` from the calling account. Roles are often managed via {grantRole} and {revokeRole}: this function's purpose is to provide a mechanism for accounts to lose their privileges if they are compromised (such as when a trusted device is misplaced). If the calling account had been revoked `role`, emits a {RoleRevoked} event. Requirements: - the caller must be `account`. May emit a {RoleRevoked} event."
      },
      "revokeRole(bytes32,address)": {
        "details": "Revokes `role` from `account`. If `account` had been granted `role`, emits a {RoleRevoked} event. Requirements: - the caller must have ``role``'s admin role. May emit a {RoleRevoked} event."
      },
      "supportsInterface(bytes4)": {
        "details": "See {IERC165-supportsInterface}."
      },
      "upgradeTo(address)": {
        "custom:oz-upgrades-unsafe-allow-reachable": "delegatecall",
        "details": "Upgrade the implementation of the proxy to `newImplementation`. Calls {_authorizeUpgrade}. Emits an {Upgraded} event."
      },
      "upgradeToAndCall(address,bytes)": {
        "custom:oz-upgrades-unsafe-allow-reachable": "delegatecall",
        "details": "Upgrade the implementation of the proxy to `newImplementation`, and subsequently execute the function call encoded in `data`. Calls {_authorizeUpgrade}. Emits an {Upgraded} event."
      }
    },
    "version": 1
  },
  "userdoc": {
    "kind": "user",
    "methods": {
      "onERC721Received(address,address,uint256,bytes)": {
        "notice": "Used for ERC721 safeTransferFrom"
      }
    },
    "version": 1
  },
  "storageLayout": {
    "storage": [
      {
        "astId": 782,
        "contract": "contracts/StrategySynthetixV3.sol:StrategySynthetixV3",
        "label": "_initialized",
        "offset": 0,
        "slot": "0",
        "type": "t_uint8"
      },
      {
        "astId": 785,
        "contract": "contracts/StrategySynthetixV3.sol:StrategySynthetixV3",
        "label": "_initializing",
        "offset": 1,
        "slot": "0",
        "type": "t_bool"
      },
      {
        "astId": 1461,
        "contract": "contracts/StrategySynthetixV3.sol:StrategySynthetixV3",
        "label": "__gap",
        "offset": 0,
        "slot": "1",
        "type": "t_array(t_uint256)50_storage"
      },
      {
        "astId": 1845,
        "contract": "contracts/StrategySynthetixV3.sol:StrategySynthetixV3",
        "label": "__gap",
        "offset": 0,
        "slot": "51",
        "type": "t_array(t_uint256)50_storage"
      },
      {
        "astId": 28,
        "contract": "contracts/StrategySynthetixV3.sol:StrategySynthetixV3",
        "label": "_roles",
        "offset": 0,
        "slot": "101",
        "type": "t_mapping(t_bytes32,t_struct(RoleData)23_storage)"
      },
      {
        "astId": 335,
        "contract": "contracts/StrategySynthetixV3.sol:StrategySynthetixV3",
        "label": "__gap",
        "offset": 0,
        "slot": "102",
        "type": "t_array(t_uint256)49_storage"
      },
      {
        "astId": 764,
        "contract": "contracts/StrategySynthetixV3.sol:StrategySynthetixV3",
        "label": "__gap",
        "offset": 0,
        "slot": "151",
        "type": "t_array(t_uint256)50_storage"
      },
      {
        "astId": 1080,
        "contract": "contracts/StrategySynthetixV3.sol:StrategySynthetixV3",
        "label": "__gap",
        "offset": 0,
        "slot": "201",
        "type": "t_array(t_uint256)50_storage"
      },
      {
        "astId": 5005,
        "contract": "contracts/StrategySynthetixV3.sol:StrategySynthetixV3",
        "label": "portfolioManager",
        "offset": 0,
        "slot": "251",
        "type": "t_address"
      },
      {
        "astId": 5007,
        "contract": "contracts/StrategySynthetixV3.sol:StrategySynthetixV3",
        "label": "swapSlippageBP",
        "offset": 0,
        "slot": "252",
        "type": "t_uint256"
      },
      {
        "astId": 5009,
        "contract": "contracts/StrategySynthetixV3.sol:StrategySynthetixV3",
        "label": "navSlippageBP",
        "offset": 0,
        "slot": "253",
        "type": "t_uint256"
      },
      {
        "astId": 5011,
        "contract": "contracts/StrategySynthetixV3.sol:StrategySynthetixV3",
        "label": "stakeSlippageBP",
        "offset": 0,
        "slot": "254",
        "type": "t_uint256"
      },
      {
        "astId": 5014,
        "contract": "contracts/StrategySynthetixV3.sol:StrategySynthetixV3",
        "label": "roleManager",
        "offset": 0,
        "slot": "255",
        "type": "t_contract(IRoleManager)5407"
      },
      {
        "astId": 5394,
        "contract": "contracts/StrategySynthetixV3.sol:StrategySynthetixV3",
        "label": "__gap",
        "offset": 0,
        "slot": "256",
        "type": "t_array(t_uint256)45_storage"
      },
      {
        "astId": 5489,
        "contract": "contracts/StrategySynthetixV3.sol:StrategySynthetixV3",
        "label": "usdcToken",
        "offset": 0,
        "slot": "301",
        "type": "t_contract(IERC20)2907"
      },
      {
        "astId": 5492,
        "contract": "contracts/StrategySynthetixV3.sol:StrategySynthetixV3",
        "label": "susdcToken",
        "offset": 0,
        "slot": "302",
        "type": "t_contract(IERC20)2907"
      },
      {
        "astId": 5495,
        "contract": "contracts/StrategySynthetixV3.sol:StrategySynthetixV3",
        "label": "snxToken",
        "offset": 0,
        "slot": "303",
        "type": "t_contract(IERC20)2907"
      },
      {
        "astId": 5498,
        "contract": "contracts/StrategySynthetixV3.sol:StrategySynthetixV3",
        "label": "wrapperModule",
        "offset": 0,
        "slot": "304",
        "type": "t_contract(IWrapperModule)4976"
      },
      {
        "astId": 5501,
        "contract": "contracts/StrategySynthetixV3.sol:StrategySynthetixV3",
        "label": "synthetixCoreRouter",
        "offset": 0,
        "slot": "305",
        "type": "t_contract(ICoreProxy)4947"
      },
      {
        "astId": 5503,
        "contract": "contracts/StrategySynthetixV3.sol:StrategySynthetixV3",
        "label": "accountId",
        "offset": 0,
        "slot": "306",
        "type": "t_uint128"
      },
      {
        "astId": 5505,
        "contract": "contracts/StrategySynthetixV3.sol:StrategySynthetixV3",
        "label": "marketId",
        "offset": 16,
        "slot": "306",
        "type": "t_uint128"
      },
      {
        "astId": 5507,
        "contract": "contracts/StrategySynthetixV3.sol:StrategySynthetixV3",
        "label": "poolId",
        "offset": 0,
        "slot": "307",
        "type": "t_uint128"
      },
      {
        "astId": 5509,
        "contract": "contracts/StrategySynthetixV3.sol:StrategySynthetixV3",
        "label": "distributorUsdc",
        "offset": 0,
        "slot": "308",
        "type": "t_address"
      },
      {
        "astId": 5511,
        "contract": "contracts/StrategySynthetixV3.sol:StrategySynthetixV3",
        "label": "distributorSnx",
        "offset": 0,
        "slot": "309",
        "type": "t_address"
      },
      {
        "astId": 5513,
        "contract": "contracts/StrategySynthetixV3.sol:StrategySynthetixV3",
        "label": "poolSnxUsdc",
        "offset": 0,
        "slot": "310",
        "type": "t_address"
      },
      {
        "astId": 5515,
        "contract": "contracts/StrategySynthetixV3.sol:StrategySynthetixV3",
        "label": "aerodromeRouter",
        "offset": 0,
        "slot": "311",
        "type": "t_address"
      },
      {
        "astId": 5517,
        "contract": "contracts/StrategySynthetixV3.sol:StrategySynthetixV3",
        "label": "susdcDecimals",
        "offset": 0,
        "slot": "312",
        "type": "t_uint256"
      },
      {
        "astId": 5519,
        "contract": "contracts/StrategySynthetixV3.sol:StrategySynthetixV3",
        "label": "usdcDecimals",
        "offset": 0,
        "slot": "313",
        "type": "t_uint256"
      }
    ],
    "types": {
      "t_address": {
        "encoding": "inplace",
        "label": "address",
        "numberOfBytes": "20"
      },
      "t_array(t_uint256)45_storage": {
        "base": "t_uint256",
        "encoding": "inplace",
        "label": "uint256[45]",
        "numberOfBytes": "1440"
      },
      "t_array(t_uint256)49_storage": {
        "base": "t_uint256",
        "encoding": "inplace",
        "label": "uint256[49]",
        "numberOfBytes": "1568"
      },
      "t_array(t_uint256)50_storage": {
        "base": "t_uint256",
        "encoding": "inplace",
        "label": "uint256[50]",
        "numberOfBytes": "1600"
      },
      "t_bool": {
        "encoding": "inplace",
        "label": "bool",
        "numberOfBytes": "1"
      },
      "t_bytes32": {
        "encoding": "inplace",
        "label": "bytes32",
        "numberOfBytes": "32"
      },
      "t_contract(ICoreProxy)4947": {
        "encoding": "inplace",
        "label": "contract ICoreProxy",
        "numberOfBytes": "20"
      },
      "t_contract(IERC20)2907": {
        "encoding": "inplace",
        "label": "contract IERC20",
        "numberOfBytes": "20"
      },
      "t_contract(IRoleManager)5407": {
        "encoding": "inplace",
        "label": "contract IRoleManager",
        "numberOfBytes": "20"
      },
      "t_contract(IWrapperModule)4976": {
        "encoding": "inplace",
        "label": "contract IWrapperModule",
        "numberOfBytes": "20"
      },
      "t_mapping(t_address,t_bool)": {
        "encoding": "mapping",
        "key": "t_address",
        "label": "mapping(address => bool)",
        "numberOfBytes": "32",
        "value": "t_bool"
      },
      "t_mapping(t_bytes32,t_struct(RoleData)23_storage)": {
        "encoding": "mapping",
        "key": "t_bytes32",
        "label": "mapping(bytes32 => struct AccessControlUpgradeable.RoleData)",
        "numberOfBytes": "32",
        "value": "t_struct(RoleData)23_storage"
      },
      "t_struct(RoleData)23_storage": {
        "encoding": "inplace",
        "label": "struct AccessControlUpgradeable.RoleData",
        "members": [
          {
            "astId": 20,
            "contract": "contracts/StrategySynthetixV3.sol:StrategySynthetixV3",
            "label": "members",
            "offset": 0,
            "slot": "0",
            "type": "t_mapping(t_address,t_bool)"
          },
          {
            "astId": 22,
            "contract": "contracts/StrategySynthetixV3.sol:StrategySynthetixV3",
            "label": "adminRole",
            "offset": 0,
            "slot": "1",
            "type": "t_bytes32"
          }
        ],
        "numberOfBytes": "64"
      },
      "t_uint128": {
        "encoding": "inplace",
        "label": "uint128",
        "numberOfBytes": "16"
      },
      "t_uint256": {
        "encoding": "inplace",
        "label": "uint256",
        "numberOfBytes": "32"
      },
      "t_uint8": {
        "encoding": "inplace",
        "label": "uint8",
        "numberOfBytes": "1"
      }
    }
  }
}